:100000000C94AE000C94D6000C94D6000C94F3041F
:100010000C94F3040C94F3040C94D6000C94D600C6
:100020000C94D6000C94D6000C94D6000C94D600F8
:100030000C94D6000C94D6000C94D6000C94D600E8
:100040000C9464190C94D6000C9485180C945F18C9
:100050000C94D6000C94D6000C94D6000C94D600C8
:100060000C946D050C94D600036EDB363D9A99997D
:10007000993DABAAAA2A3E000000803F072C7AA532
:10008000BA6CC590DA3B9365FC8BBC53F810FD3C11
:100090005692834DBD879D3AB63DCBC9BF5BBE73BB
:1000A000DA0FC93F05A84CCDB2D44EB93836A902F3
:1000B0000C50B9918688083CA6AAAA2ABE00000066
:1000C000803F564C35334C305820415049205369BD
:1000D0006D706C652052616E67696E67206578612E
:1000E0006D706C650A0A004661696C656420746F06
:1000F00020626F6F7420564C35334C30580000002E
:100100000000230026002900000000002400270032
:100110002A0000000000250028002B00040404042D
:1001200004040404020202020202030303030303A1
:10013000010204081020408001020408102001027E
:10014000040810200000000800020100000304075A
:100150000000000000000000DC26C62611241FBE9F
:10016000CFEFD8E0DEBFCDBF12E0A0E0B1E0EAE61D
:10017000F9E502C005900D92A43EB107D9F729E038
:10018000A4EEB2E001C01D92A93CB207E1F710E075
:10019000CDEAD0E004C02197FE010E941429CC3A98
:1001A000D107C9F70E94CE1F0C94A82C0C94000014
:1001B0002091BA033091BB032817390771F490914D
:1001C0006E0380916D03981741F0E0916E03F0E0AB
:1001D000E35DFC4F808190E008958FEF9FEF0895DD
:1001E00008951F93CF93DF93DC015C962D913C9192
:1001F0005D972115310539F481E090E013969C93C9
:100200008E9312973DC05196ED91FC915297509666
:100210009C915097892F80951FB75E964C915E9761
:1002200041FB772770F941FD6095F8944081772371
:1002300011F0492B01C048234083E9012197F1F7D0
:1002400048E0508160FF02C0592B01C05823508301
:10025000E9012197F1F76695415099F7772321F04D
:1002600090818923808303C08081982B90831FBF56
:100270005C968D919C915D970197F1F721E030E0BC
:10028000C901DF91CF911F9108952091BA03309158
:10029000BB032817390771F480916D0320916E0319
:1002A00090E0805C9F4F821B910960E470E00E94A7
:1002B0000029089580E090E008952091BA033091DC
:1002C000BB0328173907B9F490916E0380916D0331
:1002D000981789F0E0916E03F0E0E35DFC4F8081B8
:1002E00020916E0330E02F5F3F4F2F733327209311
:1002F0006E0390E008958FEF9FEF089585ED809352
:10030000BC008091BC0084FDFCCF10929503089541
:1003100040910803262F30E0240F311D2132310592
:10032000DCF4209195032430C9F4FC0180E090E0D6
:10033000861758F4309108032191DC01AA51BD4F72
:10034000A30FB11D2C930196F3CF80910803680F82
:100350006093080380E0089581E0089582E00895A5
:100360000895E091E5028091E402E81730F4F0E0AE
:10037000E05AF64F808190E008958FEF9FEF089547
:100380009091E5028091E402981750F4E92FF0E093
:10039000E05AF64F208130E09F5F9093E50202C063
:1003A0002FEF3FEFC90108958091E40290E0209182
:1003B000E502821B91090895CF92DF92EF92FF929E
:1003C0000F931F93CF93DF937C01262F972F8A01E2
:1003D00080919603882391F0C62FD72F6E01C40E0B
:1003E000D51ECC15DD0571F06991D701ED91FC9119
:1003F0000190F081E02DC7010995F3CF642F822F82
:100400000E948801C801DF91CF911F910F91FF9049
:10041000EF90DF90CF900895CF93DF931F92CDB7E9
:10042000DEB76983209196032223D1F02091B9038E
:10043000203240F021E030E0FC013383228380E071
:1004400090E015C080919703E82FF0E0E856FC4F4C
:10045000998190838F5F809397038093B90305C040
:1004600061E0CE0101960E94880181E090E00F904A
:10047000DF91CF9108953F924F925F926F927F925A
:100480008F929F92AF92BF92CF92DF92EF92FF92A4
:100490000F931F93CF93DF9300D000D0CDB7DEB77B
:1004A0008A01AE014F5F5F4F0E94E20E382E81112C
:1004B00036C049805A806B807C8088EE882E83E02D
:1004C000982EA12CB12CC301B201A50194010E9468
:1004D0006C2C69017A01A8EEB3E00E948E2CA30176
:1004E0009201261B370B480B590BAFEFBFEF0E9451
:1004F0008E2C6C507E4F8F4F9F4FA50194010E9410
:100500006C2C7601DD24CC24DA01C9018C0D9D1DF3
:10051000AE1DBF1DF80180839183A283B383832D19
:100520000F900F900F900F90DF91CF911F910F912F
:10053000FF90EF90DF90CF90BF90AF909F908F9003
:100540007F906F905F904F903F9008950F931F930F
:10055000CF93DF931F92CDB7DEB78B011982AE0127
:100560004F5F5F4F61E00E94AE1A811116C0998102
:1005700094FB222720F9F801208393FB222720F9FE
:10058000228392FB222720F9218396FB222720F940
:100590002383991F9927991F94830F90DF91CF91FF
:1005A0001F910F9108955F926F927F928F929F9209
:1005B000AF92BF92CF92DF92EF92FF920F931F9371
:1005C000CF93DF93CDB7DEB761970FB6F894DEBF58
:1005D0000FBECDBF7C018B01FC018089FB018083B4
:1005E000AE014A5F5F4F68EFC7010E94801A582E24
:1005F000811127C0AE014F5F5F4F64E0C7010E94C9
:100600003D1A582E81111DC02E813F8121153105C3
:1006100069F040E050E069817A818B819C810E9481
:100620006C2CF8012683378340875187F801868137
:100630009781A085B185F701868B978BA08FB18FAD
:1006400002C0511053C1F8011286AE014F5F5F4FD7
:1006500060E2C7010E94801A582E811147C189812A
:100660009A81009769F4F701858D968DA78DB0A1C9
:10067000F80185879687A787B08BF701128E13C084
:1006800033E0880F991F3A95E1F7A0E0B0E0F80158
:1006900085879687A787B08BF701858F968FA78F61
:1006A000B0A381E0828FAE014F5F5F4F68E2C70168
:1006B0000E94801A582E811119C189819A819F70D8
:1006C0008115F8E09F0708F090514AEF489F90018C
:1006D000499F300D1124C901330FAA0BBB0BF80140
:1006E000818B928BA38BB48B5801F1E2AF0EB11CBE
:1006F000370125E2620E711C480185E1880E911CCC
:10070000C12CD12CA501B601C7010E94B007582EFB
:100710008111ECC0F30181913F01F40181934F01FC
:10072000FFEFCF1ADF0A24E0A20EB11C86E0C81644
:10073000D10441F7AE014F5F5F4F61E0C7010E94F6
:10074000AE1A582E8111D2C08981F701E35EFE4FA7
:10075000808387FF04C081E0F80181AF02C0F80107
:1007600011AEF80181ADF701E75BFF4F808380EDAB
:1007700097E0A0E0B0E08A879B87AC87BD871E82A8
:100780001F821886198686E39BE0A0E0B0E0F8019E
:1007900082839383A483B583BE016F5F7F4FC701BC
:1007A0000E94A602582E8111A1C08981811107C023
:1007B0008A81811104C08B81882309F449C0AE016C
:1007C000465F5F4F62E0C7010E94E20E81118DC05B
:1007D00089818823A9F08A859B85AC85BD85825B4C
:1007E0009D4FAF4FBF4FF8014281538164817581A6
:1007F000840F951FA61FB71F82839383A483B5839D
:100800008B81882369F08A859B85AC85BD858E5454
:100810009D4FAF4FBF4F880F991FAA1FBB1F0BC023
:100820008A818823A9F08A859B85AC85BD858C56F5
:100830009D4FAF4FBF4FF801428153816481758155
:10084000840F951FA61FB71F82839383A483B5834C
:100850008C818823F1F0AE014A5F5F4F63E0C701EE
:100860000E94E20E4E815F81688579854C565D4F0E
:100870006F4F7F4FF80182809380A480B580480D30
:10088000591D6A1D7B1D42835383648375838111C7
:100890002CC08D8181110BC0F80182819381A481CC
:1008A000B581F701828B938BA48BB58B1FC0AE01F2
:1008B000425F5F4F64E0C7010E94E20E4E855F8594
:1008C000688979894A5D5D4F6F4F7F4FF80182805B
:1008D0009380A480B580480D591D6A1D7B1D4283FD
:1008E0005383648375838823B9F2582E852D6196CE
:1008F0000FB6F894DEBF0FBECDBFDF91CF911F9131
:100900000F91FF90EF90DF90CF90BF90AF909F90AE
:100910008F907F906F905F9008950F931F93CF9368
:10092000DF93EC01162F042F1B821A8288EE93E0CE
:10093000A0E0B0E08C839D83AE83BF838FE292E022
:10094000998388831F8A1E8A198E188E1B8E1A8E91
:100950001D8E1C8E6E8D6E7F20FB61F96E8F6695ED
:10096000617081E06827842F0E94B71861E0802FB2
:100970000E940319402F50E0FA01E05DFE4FE49120
:10098000E88BFA01E45EFE4FE491F0E0EE0FFF1F0A
:10099000EE5EFE4F859194919A8B898B60E0812F5A
:1009A0000E9403198E8D81FD04C061E0812F0E9499
:1009B000B7181C87612F70E0FB01E05DFE4FE491EA
:1009C000ED87FB01E45EFE4FE491F0E0EE0FFF1FC8
:1009D000E250FF4F859194919F878E87DF91CF9151
:1009E0001F910F9108951F920F920FB60F9211242D
:1009F0002F933F934F935F936F937F938F939F9327
:100A0000AF93BF93EF93FF93E091BA03F091BB03D1
:100A1000309709F451C0968DA685B785858591FFDD
:100A200004C09C91892329F447C09C91892309F033
:100A300043C0A389B4899C918589809589238C932F
:100A4000868997890197F1F7608D718DA685B785A5
:100A5000558538E020E0CB010197F1F7822F90E037
:100A600095958795282F4C91452309F020683150A2
:100A700091F7868D81FD209580916D0390E0019620
:100A80008F73992730916E03381749F0A0916D0349
:100A9000B0E0A35DBC4F2C9380936D0303C0868DA3
:100AA0008160868F828D938D0197F1F7A389B48938
:100AB0009C918589892B8C93FF91EF91BF91AF9188
:100AC0009F918F917F916F915F914F913F912F9166
:100AD0000F900FBE0F901F9018951F920F920FB698
:100AE0000F9211242F933F934F935F936F937F93B4
:100AF0008F939F93AF93BF93EF93FF938091B90030
:100B0000887F803609F49CC068F5883209F45BC0A0
:100B100090F4803109F454C038F4882309F4F6C005
:100B2000883009F44DC0F6C0883109F44CC08032D9
:100B300009F45DC0EFC0803409F468C048F4803324
:100B400009F455C0883309F0E5C080939303D8C0F9
:100B5000803509F44FC0883509F45DC0883409F048
:100B6000D9C0D6C0883909F4C7C0A8F4883709F4B9
:100B700067C038F4883609F463C0803709F460C070
:100B8000C9C0883809F4B8C0803909F45FC080381A
:100B900009F0C0C05BC0803B09F486C038F4803ADD
:100BA00009F466C0883A09F47FC0B4C0803C09F4F7
:100BB000A7C0883C09F4A4C0883B09F48AC0AAC035
:100BC0008091700310C090919203809191039817C7
:100BD00070F5E091920381E08E0F80939203F0E034
:100BE000EF58FC4F80818093BB0085EC86C08093DA
:100BF00093038EC0E091920381E08E0F8093920365
:100C00008091BB00F0E0EF58FC4F808390919203FD
:100C1000809191036EC0E091920381E08E0F8093EA
:100C200092038091BB00F0E0EF58FC4F80838091ED
:100C3000940381116DC081E080936F0384EA61C0E9
:100C400083E08093950310922C03CFCF80912C03E7
:100C5000803208F051C0E0912C0381E08E0F809328
:100C60002C038091BB00F0E0E45FFC4F8083BDCF9C
:100C700085EC8093BC001092950380912C03803208
:100C800030F4E0912C03F0E0E45FFC4F10826091BF
:100C90002C0370E0E0910A03F0910B038CE093E0E9
:100CA000099510922C0336C084E08093950310922E
:100CB000090310920803E0910603F09107030995D8
:100CC00080910803811105C081E080930803109290
:100CD000E602E091090381E08E0F80930903F0E0C2
:100CE000EA51FD4F80818093BB0090910903809170
:100CF0000803981708F479CF85E88093BC000AC0F0
:100D000085EC8093BC001092950304C0109293036D
:100D10000E947E01FF91EF91BF91AF919F918F91C2
:100D20007F916F915F914F913F912F910F900FBEE7
:100D30000F901F901895CF93DF93EC010E945115EF
:100D400062E08A81DF91CF910C940319CF92DF92F8
:100D5000EF92FF920F931F93CF93DF9300D000D0B9
:100D60001F92CDB7DEB76C0100E010E07C018EEC85
:100D7000E80EF11CF7018081AE014B5F5F4F8430BC
:100D800071F463E1C6010E94AE1A9D81292F27707C
:100D9000987109F08AEF91E0243051F40AC064E1BF
:100DA000C6010E94AE1A811103C09D81917003C0DB
:100DB00090E0811123C0913009F1073C1105E9F061
:100DC00019821A821B821C8289819A81AB81BC8123
:100DD0008A3F9105A105B10568F4000089819A81D7
:100DE000AB81BC810196A11DB11D89839A83AB8320
:100DF000BC83EACF0F5F1F4FBDCF89EF0F900F90DD
:100E00000F900F900F90DF91CF911F910F91FF9056
:100E1000EF90DF90CF900895CF93DF93EC01462FB2
:100E2000416060E00E94681B811111C0CE010E94E8
:100E3000A60681110CC0CE010E94B016811107C018
:100E400040E060E0CE01DF91CF910C94681BDF9110
:100E5000CF9108956F927F929F92AF92BF92CF925F
:100E6000DF92EF92FF920F931F93CF93DF931F9226
:100E7000CDB7DEB77C013B015A01922E6C0183EEA7
:100E8000C81A8EEFD80AF6011081198241E061E09C
:100E9000C7010E94681B811113C060E4C7010E9452
:100EA0000C0781110DC0F1E09F120AC000E021E0A3
:100EB000AE014F5F5F4FB301C7010E94571602C0DA
:100EC000F3011082811127C042E061E0C7010E9456
:100ED000681B811113C060E0C7010E940C078111DB
:100EE0000DC0F1E09F120AC001E020E0A501BE01A3
:100EF0006F5F7F4FC7010E94571602C0F501108235
:100F0000811109C0412F61E0C7010E94681B811156
:100F100002C0F60110830F90DF91CF911F910F91C6
:100F2000FF90EF90DF90CF90BF90AF909F907F9019
:100F30006F9008950F931F93AB01FC01EF5BFE4F81
:100F400006E010E020E030E060EB80810E94C21AF1
:100F5000892B11F08CEE01C080E01F910F91089554
:100F6000EF92FF920F931F93CF93DF9300D0CDB7F3
:100F7000DEB78C017A0162307105A1F138F4611598
:100F8000710559F06130710571F056C0633071051B
:100F900079F16630710598F14FC0FC0181A992A9E1
:100FA000A3A9B4A94BC0AE014F5F5F4F64E40E9498
:100FB000801A811149C0998120E030E0392F330F28
:100FC000A90160E070E0232B51F5F80145A956A96D
:100FD00067A970ADF7014083518362837383F80181
:100FE00016A232C0FC0181AD92ADA3ADB4AD26C056
:100FF000FC01FD9680819181A281B3811FC0AE0169
:101000004F5F5F4F64E60E94801A81111DC02981E5
:1010100080E090E0922F990FA0E0B0E00FC0F701C0
:101020004083518362837383F80145AB56AB67AB52
:1010300070AF91E096A308C08CEF06C0F7018083E3
:101040009183A283B38380E00F900F90DF91CF91C3
:101050001F910F91FF90EF9008952F923F924F9222
:101060005F926F927F928F929F92AF92BF92CF9238
:10107000DF92EF92FF920F931F93CF93DF93CDB741
:10108000DEB7C054D1090FB6F894DEBF0FBECDBF96
:101090007C0121967FAF6EAF2197FC01E35EFE4F8E
:1010A00020812AAF40EC61E00E94681B8111BDC223
:1010B000D70150961C9241E060E8C7010E94681B6E
:1010C00041E06FEFC7010E94681B40E060E0C7018C
:1010D0000E94681BF701E95DFE4F408161E9C7018D
:1010E0000E94681B41E060E0C7010E94681B40E06D
:1010F0006FEFC7010E94681B40E060E8C7010E94D3
:10110000681B41E060E0C7010E94681B91E0998381
:10111000811123C0812C912C5401BFEF8B1A9B0AA3
:10112000AB0ABB0A998190FF10C0811132C0E8EC74
:101130008E169104A104B10471F0AE014F5F5F4FB0
:1011400060E0C7010E94AE1AE8CFF8EC8F16910458
:10115000A104B10411F489EF68C2811166C2C7010C
:101160000E94A606811161C283E0F701E15EFE4F95
:1011700080830CE010E020E030E0AE01465E5F4F7F
:1011800064E1B29680810E94AE19892B51F08CEEF9
:101190004CC298EC89169104A104B10409F045C22F
:1011A000DACF2CA130E0322F22278DA1280F311D5C
:1011B00069A170E0DB01BA2FAA27BB0FB8AFAFABB4
:1011C0002D01612C712CBBA1BEAF8C8D90E0982FAE
:1011D00088274D8D6C01C40ED11C1A8DF701E75C78
:1011E000FE4F408151817B970081483EE3E05E07DE
:1011F000B9F1249FC001259F900D349F900D1124BB
:101200008C509E4F68EE73E00E94EC289B01F70122
:10121000858D968DA78DB0A1428D442309F1C89E7E
:101220004001C99E900CD89E900C1124892C9924C1
:10123000A12CB12C481459046A047B0429F401112F
:1012400012C020EE3AE81FC0AFA9B8AD0E94992C99
:10125000A3019201281939094A095B090E946C2CE3
:10126000002389F002C028EB32E2A9015695479588
:10127000569547955DAF4CAF522F5295550F550F70
:10128000507C5BAF03C03DAF2CAF1BAE1FA61EA6AC
:101290001877812F90E0DC0113E0B595A7951A959A
:1012A000E1F7B9ABA8ABB8A9B9AFE8A9F9A93097EC
:1012B00059F08E2F8D7F01E0853039F08E2F8C50C4
:1012C000843018F000E001C001E041E06FEFC70199
:1012D0000E94681B811107C0AE01425D5F4F66EB43
:1012E000C7010E94801A9EA5812C912C992E990CE1
:1012F000A12CB12C811105C040E06FEFC7010E9405
:10130000681BF701EE5CFE4F80829182A282B3825D
:10131000811178C1D7019596BC91BEABBB2309F46E
:101320006BC0F701828D882391F0258D368D478D16
:1013300050A1D6010E948E2CDC01CB0180589F4F1A
:10134000AF4FBF4F892F9A2FAB2FBB2703C080E031
:1013500090E0DC019C01AD01240D351D461D571D9B
:10136000A8EEB3E00E948E2CDC01CB019058AF4F69
:10137000BF4FCD01AA27BB27F701E65DFE4F892BA2
:101380008A2B8B2B89F48EEA97E8AFE8B2E0808352
:101390009183A283B3832EEA37E84FE852E02AAB69
:1013A0003BAB4CAB5DAB08C0108211821282138242
:1013B0001AAA1BAA1CAA1DAAAE01465D5F4F60E0D7
:1013C00070E0C7010E94B007282F4AA55BA56CA555
:1013D0007DA5411551056105710551F011E08AA9FE
:1013E0009BA9ACA9BDA9481759076A077B0708F054
:1013F00010E0222311F008C110E0D70197962C903D
:101400002220E1F0AE014A5D5F4F62E070E0C7016B
:101410000E94B0074EA15FA168A579A541155105AD
:101420006105710539F033243394481559056A056F
:101430007B0508F0312C882311F0E8C0312CF7012E
:10144000F0A5FAABFF23A1F1C114D10499F02FA9A3
:1014500038ADC901A0E0B0E06627782F892F9A2F18
:101460004601A12CB12CA50194010E946C2C4901CC
:101470005A0103C0812C912C5401AE014F5F5F4F84
:1014800063E070E0C7010E94B00749815A816B8117
:101490007C81411551056105710531F091E084169B
:1014A0009506A606B70608F090E0882311F025C03F
:1014B00090E0013009F4ADC088A98150833008F470
:1014C000AAC039AD363009F4A8C0393009F4A5C036
:1014D00088A98D7F883009F4A2C041E0341609F450
:1014E0009EC0343009F49DC0913009F49AC0113087
:1014F00009F499C010E090E0312C80E0D701969675
:101500003C91BEA921E0BB2319F0113009F020E085
:10151000F70123A748A959A921E04430510511F04A
:10152000311120E0D7019C962C9321E0222011F06C
:10153000321220E0F70125A7FAA921E0FF2319F0D4
:10154000913009F020E0D7019E962C9399E1970104
:10155000265B3F4FF901DE01119601900D929A959D
:10156000E1F71D821E821F821886ECADFDADFA8761
:10157000E9871C861B864D865E866F86788AFEAD5F
:101580004F2F50E0542F4427550F60E070E0498BF7
:101590005A8B6B8B7C8BDE8ACD8A4BAD488F898FC3
:1015A00089E1FE013196D90101900D928A95E1F70A
:1015B000C7010E94B016811138C041E06FEFC7012A
:1015C0000E94681B811131C021964EAD5FAD2197FD
:1015D00066EBC7010E94801A811127C040E06FEFBF
:1015E000C7010E94681B811120C04AAD61E0C7019C
:1015F0000E94681B811119C0F701E35EFE4F5AADCE
:10160000508313C010E01EAA212C312C90E01AAA9E
:1016100074CF8FEF73CF85E071CF84E06FCF83E01D
:101620006DCF82E06BCF81E069CFC05CDF4F0FB63A
:10163000F894DEBF0FBECDBFDF91CF911F910F9108
:10164000FF90EF90DF90CF90BF90AF909F908F90E2
:101650007F906F905F904F903F902F9008952F92C2
:101660003F924F925F926F927F928F929F92AF9232
:10167000BF92CF92DF92EF92FF920F931F93CF937F
:10168000DF93CDB7DEB7AB970FB6F894DEBF0FBED2
:10169000CDBF1C017EA36DA358A74FA31B861C863C
:1016A0001D861E861F82188619861A861A8A198A2E
:1016B000FC01E85DFE4F20813181388F2F8BAC011A
:1016C0004F5E5E4F5A8F498FDA011C922C01BEEE9D
:1016D0004B1ABEEF5B0AF20110823C01FDEE6F1A5D
:1016E000FEEF7F0AD3011C92FC01EC5EFE4F1082DC
:1016F000319610823196108241E06FEF0E94681B94
:101700008111FCC140E06FE4C1010E94681B81119E
:10171000F5C14CE26EE4C1010E94681B8111EEC16B
:1017200040E06FEFC1010E94681B8111E7C144EBEB
:1017300066EBC1010E94681B8111E0C140E060E8D6
:10174000C1010E94681B8111D9C120E0AE014F5E2A
:101750005F4FBE016E5E7F4FC1010E942A0781115B
:10176000CDC11B861C861D861E86F101E95EFE4FDB
:10177000FC8FEB8F9E01255F3F4F4901A3E0AA2E0E
:10178000B12CC12CD12CE12CF12C8701298D3A8D63
:10179000AF0160E0C1010E94B31B8111AFC14B8555
:1017A0005C856D857E854B8B5C8B6D8B7E8BBE01E6
:1017B000615F7F4FC1010E942D0881119FC18F85FC
:1017C00098896F89788D6817790708F077C0A98D97
:1017D000BA8D1C92F2011082D3011C9232961082B3
:1017E00031961082319610828B899C89AD89BE8991
:1017F0008C549F4FAF4FBF4FE6E0B695A795979596
:101800008795EA95D1F7880F991F880F991FFC01DA
:10181000E559FD4F80819181A281B381892B8A2B6B
:101820008B2BA9F1BE01655F7F4F4B0173E0A72EA3
:10183000B12CC12CD12CEB88FC880D891E89298DF7
:101840003A8D4B8D5C8D61E0C1010E94B31B81110B
:1018500055C14B855C856D857E854B8B5C8B6D8B17
:101860007E8BBE01615F7F4FC1010E942D088111F7
:1018700045C18F8598896F89788D6817790730F50C
:1018800011E063E0462E512C612C712C23C04B8952
:101890005C896D897E894C3251056105710508F0BE
:1018A000C1CF4B895C896D897E894F5F5F4F6F4FD8
:1018B0007F4F4B8B5C8B6D8B7E8B96CF10E0412CDA
:1018C000512C3201C12CD12C760108C010E0412CE2
:1018D000512C3201C12CD12C7601C3948F8598896B
:1018E0006F89788D8617970708F0EEC01C2D46E0AB
:1018F000E98DFA8D9E012F5F3F4FD90101900D9226
:101900004A95E1F7AF89B88D8A1B9B0BAC0160E06B
:1019100070E049A35AA36BA37CA353E0452E512C3E
:10192000612C712CB1016F5E7E4F7AA769A72BA73E
:10193000032F9E01295F3F4F4B895C896D897E890A
:101940008B8D9C8D0E940C178F809884A984BA84FB
:101950007FEF87169706A706B70609F4CEC0A30146
:1019600092012F5F3F4F4F4F5F4F2D8F3E8F4F8F15
:1019700058A3D501C4018C549F4FAF4FBF4F36E0E1
:10198000B695A795979587953A95D1F7880F991FA2
:10199000880F991FFC01E559FD4F81E090E0A0E020
:1019A000B0E04081518162817381452B462B472BEA
:1019B00019F480E090E0DC018C159D05AE05BF05B3
:1019C00009F09BC0D501C40123E0B695A795979572
:1019D00087952A95D1F7B501A40147705527662749
:1019E000772786309105A105B10508F086C0E98DFD
:1019F000FA8DE80FF91F21E030E001C0220F4A956F
:101A0000EAF73081232B2083698D7A8DC1010E94F2
:101A10009A07811173C0BE01615F7F4FC1010E94AF
:101A20002D0881116BC08F8598894F89588D841737
:101A3000950731F0AC016F89788D461B570B02C0BA
:101A400040E050E060E070E0AF89B88DA817B907BA
:101A5000E0F489A19AA1ABA1BCA184179507A607C0
:101A6000B70770F5BE016F5F7F4FC1010E949A07F3
:101A700096E0FE013196D101AF5EBE4F01900D920E
:101A80009A95E1F7882301F139C0D501C401019687
:101A9000A11DB11D8B8B9C8BAD8BBE8BE9A5FAA5CF
:101AA000ABA5B02F86E001900D928A95E1F74D8CA1
:101AB0005E8C6F8C78A049A35AA36BA37CA339CF0B
:101AC0004D8C5E8C6F8C78A0ADA1BEA14D925D92C5
:101AD0006D927C921397EFA1F8A51083F101EC5F52
:101AE000FE4F81E0808332978C918083AFA1B8A5AF
:101AF0008C913196808380E001C08EECAB960FB65E
:101B0000F894DEBF0FBECDBFDF91CF911F910F9133
:101B1000FF90EF90DF90CF90BF90AF909F908F900D
:101B20007F906F905F904F903F902F900895CF924D
:101B3000DF92EF92FF921F93CF93DF931F92CDB767
:101B4000DEB77C0140E063E80E94681B182F81111A
:101B500017C0C12CD12CAE014F5F5F4F63E8C701A6
:101B60000E94AE1A182F898181110AC0111108C074
:101B70008FEFC81AD80A88ECC816D10461F719EF9C
:101B800041E063E8C7010E94681B812B0F90DF9141
:101B9000CF911F91FF90EF90DF90CF9008952F92FB
:101BA0003F924F925F926F927F928F929F92AF92ED
:101BB000BF92CF92DF92EF92FF920F931F93CF933A
:101BC000DF93CDB7DEB727970FB6F894DEBF0FBE11
:101BD000CDBF6B0120E030E070E01C014FEB241A18
:101BE0004EEF340A2C01ADED4A1AAEEF5A0A3C0111
:101BF000BFED6B1ABEEF7B0A4C01EBED8E1AEEEFD8
:101C00009E0A5C01F8EDAF1AFEEFBF0AF601E20F83
:101C1000F31F0081002309F495C0711193C079016D
:101C20004FEFE41AF40A0F3F09F055C0D601AE0D8C
:101C3000BF1D8C91790192E0E90EF11C813031F1E8
:101C4000A8F0823099F1833009F079C0D601AE0D49
:101C5000BF1D8C91790144E0E40EF11C90E0982FB7
:101C600088272381820F911DD50132C0D601AE0D88
:101C7000BF1D8C917901A4E0EA0EF11C90E0982F31
:101C800088272381820F911DF3011FC0D601AE0D5D
:101C9000BF1D8C91790144E0E40EF11C90E0982F77
:101CA00088272381820F911DD20112C0D601AE0D6B
:101CB000BF1D8C917901B4E0EB0EF11C90E0982FE0
:101CC00088272381820F911DF4019183808338C07E
:101CD0008D939C9335C0053090F5D601AE0DBF1D98
:101CE0006C917901B2E0EB0EF11CCE0101969F835D
:101CF0008E8380E090E0202F30E0821793076CF411
:101D0000AF01480F591FDA0112964C91AE81BF8185
:101D10004D93BF83AE830196F0CFE20EF31E10E029
:101D200020E030E0AE014F5F5F4FF10180817D83A5
:101D30000E94C21A7D81892B19F07CEE01C07CEFD4
:101D4000970164CF872F27960FB6F894DEBF0FBE9A
:101D5000CDBFDF91CF911F910F91FF90EF90DF905A
:101D6000CF90BF90AF909F908F907F906F905F903B
:101D70004F903F902F9008950F931F93CF93DF9331
:101D80001F92CDB7DEB78A01662339F0613099F42E
:101D9000AE014F5F5F4F60E704C0AE014F5F5F4F22
:101DA00060E50E94AE1A811107C099819F5F990F6B
:101DB000F801908301C08CEF0F90DF91CF911F91BC
:101DC0000F9108952F923F924F925F926F927F9260
:101DD0008F929F92AF92BF92CF92DF92EF92FF923B
:101DE0001F93CF93DF93CDB7DEB72B970FB6F89441
:101DF000DEBF0FBECDBF6C011A011A861986188688
:101E0000633008F041C0AE01455F5F4F60E00E9463
:101E1000BC0E182F811108C0AE01465F5F4F66E40B
:101E2000C6010E94AE1A182FAB85B0E020E03FE259
:101E30004AE350E00E948E2C6C507E4F8F4F9F4F94
:101E4000E8EECE2EE3E0DE2EE12CF12CA701960188
:101E50000E946C2C29013A01769467945794479418
:101E60006A85862F90E0A0E0B0E0BC01CD016F5FF5
:101E70007F4F8F4F9F4F0E945C2C640D751D861DF8
:101E8000971DA7019601DDC0633009F057C0AE0170
:101E9000455F5F4F60E00E94BC0E182F8111D4C0D7
:101EA000AE01455F5F4F60E0C6010E94BC0E182F77
:101EB000811108C0AE01485F5F4F61E5C6010E9415
:101EC000801A182FA884B984AB85B0E020E03FE2E7
:101ED0004AE350E00E948E2C6C507E4F8F4F9F4FF4
:101EE00048EE442E43E0542E612C712CA301920144
:101EF0000E946C2C69017A0195013327C901A0E089
:101F0000B0E004C0880F991FAA1FBB1FBA94D2F774
:101F10000196A11DB11D9C01AD0144275527C701A4
:101F2000B6010E945C2CF694E794D794C7946C0D8C
:101F30007D1D8E1D9F1DA301920183C0643009F099
:101F400087C0BE016F5F7F4F0E94A6028C818823ED
:101F500031F1AE01455F5F4F60E0C6010E94BC0EEB
:101F6000182F811143C0AE01485F5F4F61E5C60184
:101F70000E94801A182F28853985C9019927A0E069
:101F8000B0E004C0880F991FAA1FBB1F3A95D2F773
:101F90000196A11DB11D7C0111112AC002C0E12CC6
:101FA000F12CAE01455F5F4F61E0C6010E94BC0E9F
:101FB000182F81111DC0AE014A5F5F4F61E7C60156
:101FC0000E94801A182F2E813F81D901BB27CD0195
:101FD000A0E0B0E004C0880F991FAA1FBB1F3A956C
:101FE000D2F70196A11DB11D6C0104C0E12CF12CAA
:101FF000C12CD12CAB85B0E020E03FE24AE350E0B9
:102000000E948E2C6C507E4F8F4F9F4F28EE822E59
:1020100023E0922EA12CB12CA50194010E946C2CDE
:1020200029013A01D601AE19BF090E948E2C76947F
:10203000679457944794640D751D861D971DA501DF
:1020400094010E946C2C08C020E030E0A90104C07B
:1020500020E030E0A90110E0F101208331834283C8
:102060005383812F2B960FB6F894DEBF0FBECDBFE2
:10207000DF91CF911F91FF90EF90DF90CF90BF90B5
:10208000AF909F908F907F906F905F904F903F9018
:102090002F9008952F923F924F925F926F927F926E
:1020A0008F929F92AF92BF92CF92DF92EF92FF9268
:1020B0000F931F93CF93DF93CDB7DEB765970FB61E
:1020C000F894DEBF0FBECDBF00ED17E020E030E09A
:1020D0000F87188B298B3A8B1B861C861D861E86C4
:1020E00040322EE452076105710508F421C14A010E
:1020F0005B018C01BE016A5F7F4F0E94A6028111C5
:1021000018C12401350188EE481A88E0580A610890
:1021100071088E81811107C08F81811104C088856B
:10212000882309F443C0AE01415F5F4F62E0C801FC
:102130000E94E20E8111FDC08E81882391F08F856F
:102140009889A989BA89825B9D4FAF4FBF4F84158B
:102150009505A605B70508F0EBC0481A590A6A0AA2
:102160007B0A8885882369F08F859889A989BA892F
:102170008E549D4FAF4FBF4F880F991FAA1FBB1F93
:102180000BC08F81882391F08F859889A989BA899E
:102190008C569D4FAF4FBF4F84159505A605B705CB
:1021A00008F0C6C0481A590A6A0A7B0A898588233A
:1021B000D9F0AE01455F5F4F63E0C8010E94E20EB7
:1021C0004B855C856D857E854C565D4F6F4F7F4F8F
:1021D000441555056605770508F0AAC08111A9C008
:1021E000441A550A660A770A8A85882309F49EC02C
:1021F000BE016F5F7F4FC8010E94A6028C818823B9
:1022000029F1AE014B5E5F4F60E0C8010E94BC0E39
:10221000811186C0AE014D5E5F4F61E5C8010E942D
:10222000801AEB89FC8981117BC0AF01552760E0E2
:1022300070E004C0440F551F661F771FFA95D2F750
:102240004F5F5F4F6F4F7F4F1A0102C0212C312C1F
:10225000AE014B5E5F4F61E0C8010E94BC0E811170
:102260005FC0E6E24E1AE2E05E0A61087108AD89DD
:10227000B0E020E03FE24AE350E00E948E2C6C5038
:102280007E4F8F4F9F4F28EE33E040E050E00E949A
:102290006C2C69017A01A8EEB3E0A30192010E94BF
:1022A0008E2CA70196015695479537952795620F75
:1022B000731F841F951FA70196010E946C2C220D8D
:1022C000331D21153105E9F0A90160E070E04150AE
:1022D000510961097109E12CF12CDB01CA01882740
:1022E000892B8A2B8B2B41F07695679557954795CF
:1022F000FFEFEF1AFF0AF1CFFE2CEE244E0D5F1D0B
:1023000002C040E050E061E7C8010E94461B811115
:1023100007C0F801E153FF4F40825182628273820D
:10232000F801828A938AA48AB58A03C080E001C03A
:102330008CEF65960FB6F894DEBF0FBECDBFDF9170
:10234000CF911F910F91FF90EF90DF90CF90BF90B2
:10235000AF909F908F907F906F905F904F903F9045
:102360002F9008952F923F924F925F926F927F929B
:102370008F929F92AF92BF92CF92DF92EF92FF9295
:102380000F931F93CF93DF93CDB7DEB7E0970FB6D0
:10239000F894DEBF0FBECDBF1AA21BA21CA21DA2C5
:1023A0001E8E1F8E18A219A26C012FEDC20ED11C19
:1023B000F6017080F7E07F1609F4DAC2E62E8C0190
:1023C00041E060E80E94681BF82E41E06FEFC80111
:1023D0000E94681BF82A40E060E0C8010E94681B68
:1023E000F82A46E06FEFC8010E94681BF82AAE0188
:1023F000445D5F4F63E8C8010E94AE1AF82A4CA5FD
:10240000446063E8C8010E94681BF82A47E06FEF48
:10241000C8010E94681BF82A41E061E8C8010E94D7
:10242000681BF82A1A8E1B8E1C8E1D8E8A8D9B8D22
:10243000AC8DBD8D8A3F9105A105B10568F4000002
:102440008A8D9B8DAC8DBD8D0196A11DB11D8A8F8E
:102450009B8FAC8FBD8FEACF41E060E8C8010E943E
:10246000681BF82A2E2D21702EA7E0FE57C070FCA5
:1024700055C04BE664E9C8010E94681BB82EC8012C
:102480000E94970D8B29F82AAE014A5D5F4F60E9E3
:10249000C8010E943D1AF82A8EA19FA1A8A5B9A53E
:1024A000292F2F772DA74FE0B695A795979587955C
:1024B0004A95D1F7E82FE1706E2E44E264E9C80135
:1024C0000E94681BF82AC8010E94970DF82AAE01E5
:1024D0004A5D5F4F60E9C8010E943D1AF82A8EA14B
:1024E0009FA128A539A53C8B2D8B9E8B8F8B45E218
:1024F00064E9C8010E94681BF82AC8010E94970D70
:10250000F82AAE014A5D5F4F60E9C8010E943D1A9A
:10251000F82A88A599A5988F898F02C0612C1DA6DD
:102520002E2D22702FA7E1FE44C171FC42C142E072
:1025300064E9C8010E94681BB82EC8010E94970D6B
:102540008B29F82AAE01455D5F4F60E9C8010E9402
:10255000AE1AF82A4BE764E9C8010E94681BF82A02
:10256000C8010E94970DF82AAE01465D5F4F60E9F1
:10257000C8010E94AE1AF82A47E764E9C8010E9420
:10258000681BF82AC8010E94970DF82AAE014A5D1F
:102590005F4F60E9C8010E943D1AF82A4EA15FA171
:1025A00068A579A5DB01CA01E9E1B695A7959795DC
:1025B0008795EA95D1F78983DB01CA01F2E1B695E7
:1025C000A79597958795FA95D1F78F778A83DB0141
:1025D000CA012BE0B695A795979587952A95D1F7CF
:1025E0008F778B83DB01CA0134E0B695A795979569
:1025F00087953A95D1F78F778C834F70440F440FAE
:10260000440F4CA748E764E9C8010E94681BF82AF8
:10261000C8010E94970DF82AAE014A5D5F4F60E93C
:10262000C8010E943D1AF82A8EA19FA1A8A5B9A5AC
:10263000AC01BD01EDE17695679557954795EA9513
:10264000D1F72CA5420F4D83AC01BD01F6E1769583
:10265000679557954795FA95D1F74F774E83AC011B
:10266000BD012FE076956795579547952A95D1F747
:102670004F774F83292F2F772887AC01BD0176959F
:102680006795579547954F774987982F9170929501
:10269000990F990F907C9CA749E764E9C8010E94B3
:1026A000681BF82AC8010E94970DF82AAE014A5DFE
:1026B0005F4F60E9C8010E943D1AF82A8EA19FA1D0
:1026C000A8A5B9A5AC01BD01EAE176956795579536
:1026D0004795EA95D1F72CA5420F4A87AC01BD0179
:1026E000F3E17695679557954795FA95D1F74F772A
:1026F0004B87AC01BD012CE07695679557954795C2
:102700002A95D1F74F774C87AC01BD0135E076951E
:102710006795579547953A95D1F74F774D87982FFD
:102720009F71990F990F9CA74AE764E9C8010E941D
:10273000681BF82AC8010E94970DF82AAE014A5D6D
:102740005F4F60E9C8010E943D1AF82A8EA19FA13F
:10275000A8A5B9A5AC01BD01EEE1769567955795A1
:102760004795EA95D1F72CA5420F4E87AC01BD01E4
:10277000F7E17695679557954795FA95D1F74F7795
:102780004F872A2F2F77288BAC01BD0129E0769542
:102790006795579547952A95D1F74F77498B32E042
:1027A000B695A795979587953A95D1F78F778A8BA8
:1027B0001B8A2E2D247028ABE2FE9EC072FC9CC0AA
:1027C0004BE764E9C8010E94681BB82EC8010E944B
:1027D000970D8B29F82AAE014E5D5F4F60E9C80165
:1027E0000E943D1AF82A4CE764E9C8010E94681B60
:1027F000F82AC8010E94970DF82AAE01425E5F4F89
:1028000060E9C8010E943D1AF82A43E764E9C8015B
:102810000E94681BF82AC8010E94970DF82AAE0191
:102820004A5D5F4F60E9C8010E943D1AF82A8EA0F8
:102830009FA0A8A4B9A4BA2CA92C982C8824AA24B7
:10284000BB2444E764E9C8010E94681BF82AC80158
:102850000E94970DF82AAE014A5D5F4F60E9C801FA
:102860000E943D1AF82A8EA19FA1A8A5B9A58B2F79
:102870009927AA27BB27882A992AAA2ABB2A45E78B
:1028800064E9C8010E94681BF82AC8010E94970DDC
:10289000F82AAE014A5D5F4F60E9C8010E943D1A07
:1028A000F82A8EA19FA1A8A5B9A5BA2FA92F982F64
:1028B00088271C012D014424552446E764E9C801FA
:1028C0000E94681BF82AC8010E94970DF82AAE01E1
:1028D0004A5D5F4F60E9C8010E943D1AF82A8EA147
:1028E0009FA1A8A5B9A58B2F9927AA27BB27282A7E
:1028F000392A4A2A5B2A06C0812C912C5401212CAA
:10290000312C210140E061E8C8010E94681BF82ACF
:1029100046E06FEFC8010E94681BF82AAE01445DD3
:102920005F4F63E8C8010E94AE1AF82A4CA54B7F9E
:1029300063E8C8010E94681BF82A41E06FEFC801F4
:102940000E94681BF82A41E060E0C8010E94681BF1
:10295000F82A40E06FEFC8010E94681BF82A40E0A7
:1029600060E8C8010E94681BF82A09F080C002C014
:10297000F12C7DC02EA5222311F070FE04C02FA5DE
:10298000211114C025C0F801EE5FFE4F2DA5208354
:1029900031966082DE0154967496C801835E9E4F24
:1029A0002D912193E817F907D9F7E9CF71FC10C0F1
:1029B0008BA5F801E052FF4F80838AA53196808372
:1029C000BE016F5F7F4FC8018E519F4F0E94312B18
:1029D00028A9222309F448C072FC46C08AA19BA101
:1029E000ACA1BDA1F801EB5FFE4F80839183A28370
:1029F000B3838E8D9F8DA8A1B9A1349680839183D6
:102A0000A283B383349639E0880C991CAA1CBB1CA2
:102A10003A95D1F780829182A282B3822114310447
:102A200041045104B1F0A201910139514109510908
:102A3000A8EEB3E00E948E2CDC01CB0124E0B69519
:102A4000A795979587952A95D1F7919581959109A5
:102A500002C080E090E0092E000CAA0BBB0BF8012D
:102A600084879587A687B787E728F601E0828F2DB0
:102A7000E0960FB6F894DEBF0FBECDBFDF91CF91C9
:102A80001F910F91FF90EF90DF90CF90BF90AF908C
:102A90009F908F907F906F905F904F903F902F907E
:102AA0000895ECEBF3E0A089B18982E08C93A485D2
:102AB000B5851C92A685B78580E18C93108EA4897C
:102AC000B58986E08C93A289B3898C9180618C93BF
:102AD000A289B3898C9188608C93A289B3898C91E7
:102AE00080688C930288F389E02D80818F7D8083BC
:102AF0000895E091BA03F091BB03E817F90769F470
:102B0000A389B4899C918589809589238C9310929F
:102B1000BB031092BA0381E0089580E008950F93FB
:102B20001F93CF93DF93CDB7DEB727970FB6F894F7
:102B3000DEBF0FBECDBF8C0185E589838A838EEF12
:102B40008B8384E08C838FE18D83FB0190819E8356
:102B50009F5D90959F8361E0F80182810E94031937
:102B600061E08BE00E94031947E050E0BE016F5F17
:102B70007F4F8CEB93E00E94881B62E0F80182811A
:102B80000E94031961E0F80182810E94B71827961C
:102B90000FB6F894DEBF0FBECDBFDF91CF911F916E
:102BA0000F9108950F931F93CF93DF938C01C0E093
:102BB000D0E0F801EC0FFD1F6491662371F0E09105
:102BC000BC03F091BD030190F081E02D8CEB93E00C
:102BD0000995892B11F02196ECCF6AE872E08CEB15
:102BE00093E00E94B91F8C0F9D1FDF91CF911F9121
:102BF0000F9108952091B9039091B803213208F004
:102C00004AC0809195038111FCCF32E03093950347
:102C100031E0309394033FEF30939303109292038B
:102C200020939103A8E9B3E041E753E0FA013E2F76
:102C3000341B321718F43D913193F9CF1092700381
:102C400020917003990F922B9093700390916F03D2
:102C5000913061F410926F03909170039093BB00D8
:102C60009091BC0093FDF8CF95EC01C095EE909348
:102C7000BC00909195039230E1F3909193039F3FB4
:102C800079F080919303803241F0809193038033F7
:102C900031F084E005C081E003C082E001C083E040
:102CA000109297031092B903109296030895AF9271
:102CB000BF92CF92DF92EF92FF920F931F93CF9329
:102CC000DF9300D0CDB7DEB77C015B016A011982CA
:102CD00041E06FEF2A830E94681B182F40E060E0FC
:102CE000C7010E94681B182B40E06FEFC7010E94CC
:102CF000681B182B2A81222331F0A5016BECC70138
:102D00000E94AE1A182B002341F0AE014F5F5F4FB7
:102D10006EEEC7010E94AE1A182B41E06FEFC7019B
:102D20000E94681B182B41E060E0C7010E94681BED
:102D3000182B40E06FEFC7010E94681B99819F7EAE
:102D4000F6019083812B0F900F90DF91CF911F910F
:102D50000F91FF90EF90DF90CF90BF90AF900895CC
:102D6000EF92FF920F931F93CF93DF931F92CDB7F4
:102D7000DEB77C0100E041E06BE0C7010E94681B08
:102D8000182F40E06BE0C7010E94681B182BAE01B2
:102D90004F5F5F4F63E1C7010E94AE1A912F982BDE
:102DA0000F5F8981877029F0033029F0992319F387
:102DB00003C0033009F494EF892F0F90DF91CF9176
:102DC0001F910F91FF90EF9008950F931F93CF9352
:102DD000DF9300D0CDB7DEB7FC01E253FF4F208177
:102DE0002150233088F48C01AE014F5F5F4F6EE0BD
:102DF0000E94801A811109C0AE014F5F5F4F6CE0E5
:102E0000C8010E94801A01C080E00F900F90DF91EE
:102E1000CF911F910F9108954F925F926F927F9281
:102E20008F929F92AF92BF92CF92DF92EF92FF92DA
:102E30000F931F93CF93DF93EC01F9010FEF1FEF77
:102E4000980100831183228333834A015B0183E06D
:102E5000B694A794979487948A95D1F78A019B0199
:102E600007701127222733272401350193E0440CF2
:102E7000551C661C771C9A95D1F77501640140E0DA
:102E800086E0C816D104E104F104D0F5411138C040
:102E9000DE01AC0DBD1D6C91C814D904EA04FB041D
:102EA00051F470E0002E02C0759567950A94E2F720
:102EB000D901C80103C080E090E0DC0160FF0CC0D4
:102EC000AC01BD01440D551D661D771D4083518326
:102ED0006283738341E009C066950196A11DB11D0F
:102EE00088309105A105B10549F78FEFC81AD80AB6
:102EF000E80AF80A88E0480E511C611C711CC0CF1A
:102F0000DF91CF911F910F91FF90EF90DF90CF90C5
:102F1000BF90AF909F908F907F906F905F904F90F9
:102F20000895FC01918D828D981761F0828DDF01EB
:102F3000A80FB11D5D968C91928D9F5F9F73928FAC
:102F400090E008958FEF9FEF0895FC01918D828DA1
:102F5000981731F0828DE80FF11D858D90E008956E
:102F60008FEF9FEF0895FC01918D228D892F90E0C6
:102F7000805C9F4F821B91098F73992708958CEB7A
:102F800093E00E94B31721E0892B09F420E0822FFF
:102F90000895FC01848DDF01A80FB11DA35ABF4F16
:102FA0002C91848D90E001968F739927848FA68948
:102FB000B7892C93A089B1898C9180648C93938D6F
:102FC000848D981306C00288F389E02D80818F7D5F
:102FD00080830895EF92FF920F931F93CF93DF9317
:102FE000EC0181E0888F9B8D8C8D981305C0E8895A
:102FF000F989808185FD24C0F62E0B8D10E00F5FCE
:103000001F4F0F731127E02E8C8DE8120CC00FB6E6
:1030100007FCFACFE889F989808185FFF5CFCE01D9
:103020000E94C917F1CF8B8DFE01E80FF11DE35A05
:10303000FF4FF0820B8FEA89FB898081806207C095
:10304000EE89FF896083E889F989808180648083C3
:1030500081E090E0DF91CF911F910F91FF90EF9071
:103060000895CF93DF93EC01888D8823C9F0EA8916
:10307000FB89808185FD05C0A889B9898C9186FD71
:103080000FC00FB607FCF5CF808185FFF2CFA8896E
:10309000B9898C9185FFEDCFCE010E94C917E7CF8A
:1030A000DF91CF91089580E090E0892B29F00E9474
:1030B000BF1781110C94000008950E942C2B1F92C1
:1030C0000F920FB60F9211242F933F934F935F935C
:1030D0006F937F938F939F93AF93BF93EF93FF93E0
:1030E0008CEB93E00E94C917FF91EF91BF91AF91D4
:1030F0009F918F917F916F915F914F913F912F9110
:103100000F900FBE0F901F9018951F920F920FB641
:103110000F9211242F938F939F93EF93FF93E0913E
:10312000CC03F091CD038081E091D203F091D303E1
:1031300082FD12C090818091D5038F5F8F732091A3
:10314000D603821751F0E091D503F0E0E454FC4F30
:10315000958F8093D50301C08081FF91EF919F915E
:103160008F912F910F900FBE0F901F90189590E0A8
:10317000FC01EC5BFE4F3491FC01E05DFE4F2491BD
:10318000FC01E45EFE4FE491EE2309F43BC03323DF
:1031900039F1333091F038F43130A9F0323001F5A3
:1031A00084B58F7D12C0373091F03830A1F03430C3
:1031B000B9F4809180008F7D03C0809180008F776B
:1031C000809380000DC084B58F7784BD09C0809145
:1031D000B0008F7703C08091B0008F7D8093B000E6
:1031E000F0E0EE0FFF1FEE5EFE4FA591B4918FB79A
:1031F000F894EC91611103C020952E2301C02E2B71
:103200002C938FBF0895CF93DF9390E0FC01E05D96
:10321000FE4F2491FC01E45EFE4F8491882361F10E
:1032200090E0880F991FFC01E85FFE4FC591D49193
:10323000FC01EE5EFE4FA591B491611109C09FB7EC
:10324000F8948881209582238883EC912E230BC0EB
:10325000623061F49FB7F8943881822F8095832380
:103260008883EC912E2B2C939FBF06C08FB7F894C8
:10327000E8812E2B28838FBFDF91CF9108953FB730
:10328000F8948091810990918209A0918309B0916D
:10329000840926B5A89B05C02F3F19F00196A11DF2
:1032A000B11D3FBFBA2FA92F982F8827820F911DDC
:1032B000A11DB11DBC01CD0142E0660F771F881F23
:1032C000991F4A95D1F708951F920F920FB60F924A
:1032D00011242F933F938F939F93AF93BF9380912C
:1032E000C5099091C609A091C709B091C80930914C
:1032F000800923E0230F2D3720F40196A11DB11D75
:1033000005C026E8230F0296A11DB11D2093800958
:103310008093C5099093C609A093C709B093C809C3
:103320008091810990918209A0918309B0918409CB
:103330000196A11DB11D8093810990938209A093EC
:103340008309B0938409BF91AF919F918F913F9171
:103350002F910F900FBE0F901F901895AF92BF92B4
:10336000CF92DF92EF92FF920F931F93CF93DF9351
:1033700000D0CDB7DEB7F82E5A0181E080939603D6
:10338000F092B803109297031092B90381EA94E087
:1033900029833A830E940C020E94FA153A812981FE
:1033A000809195038111FCCF902F013208F090E2BB
:1033B00081E080939503809394034FEF40939303B0
:1033C00010929203490F4093910380937003809170
:1033D0007003FF0CF82AF092700380916F03813024
:1033E00061F410926F03809170038093BB00809111
:1033F000BC0083FDF8CF85EC01C085EE8093BC0056
:10340000809195038130E1F380919203891710F444
:1034100090919203A1E7B3E040E659E0FA018E2FC4
:10342000841B891718F48D918193F9CF1092E502CE
:103430009093E40268017901C114D104E104F1041C
:1034400069F081EA94E00E94C001F50181935F0177
:10345000F1E0CF1AD108E108F108EECF80E090E06A
:103460000F900F90DF91CF911F910F91FF90EF90F0
:10347000DF90CF90BF90AF900895EF92FF920F939F
:103480001F93CF93DF9300D000D0CDB7DEB77A0182
:10349000FC01EF5BFE4F04E010E020E030E0AE0105
:1034A0004F5F5F4F80810E94AE19098110E020E0DC
:1034B00030E0322F212F102F00274A81042B322F8A
:1034C000212F102F00274B81042B322F212F102F5B
:1034D00000274C81042BF70100831183228333835F
:1034E000892B11F08CEE01C080E00F900F900F90AF
:1034F0000F90DF91CF911F910F91FF90EF90089562
:10350000EF92FF920F931F93CF93DF9300D0CDB72D
:10351000DEB77A01FC01EF5BFE4F02E010E020E035
:1035200030E0AE014F5F5F4F80810E94AE1929816C
:1035300030E0322F22274A81242BF7013183208368
:10354000892B11F08CEE01C080E00F900F90DF917D
:10355000CF911F910F91FF90EF9008950F931F93BC
:10356000FC01EF5BFE4F01E010E020E030E08081E5
:103570000E94AE19892B11F08CEE01C080E01F91E2
:103580000F910895AF92BF92CF92DF92EF92FF9288
:103590000F931F93CF93DF9300D0CDB7DEB75A01BF
:1035A00091E0909396038093B80310929703109242
:1035B000B90381EA94E029833A830E940C026801EE
:1035C0002981E22E3A81F32EC114D104E104F104E1
:1035D00069F0F50161915F0181EA94E00E940C02BB
:1035E000F1E0CF1AD108E108F108EECF0E94FA15F8
:1035F00080E090E00F900F90DF91CF911F910F919D
:10360000FF90EF90DF90CF90BF90AF900895CF9252
:10361000DF92EF92FF920F931F93CF93DF9300D02F
:10362000CDB7DEB7D62EC42EF22EFC01EF5BFE4FD7
:10363000E08001E010E020E030E0AE014E5F5F4F3F
:103640008E2D0E94AE19892BA9F49A812C2D292345
:103650002F292A83298301E010E020E030E0AE0129
:103660004F5F5F4F6D2D8E2D0E94C21A892B11F472
:1036700080E001C08CEE0F900F90DF91CF911F91F1
:103680000F91FF90EF90DF90CF9008950F931F93CD
:10369000CF93DF9300D0CDB7DEB7FC01EF5BFE4FD9
:1036A00080814A83598302E010E020E030E0AE01DF
:1036B0004F5F5F4F0E94C21A892B11F08CEE01C040
:1036C00080E00F900F90DF91CF911F910F9108959F
:1036D0000F931F93CF93DF931F92CDB7DEB7FC01FB
:1036E000EF5BFE4F8081498301E010E020E030E095
:1036F000AE014F5F5F4F0E94C21A892B11F08CEE12
:1037000001C080E00F90DF91CF911F910F9108953C
:10371000CF92DF92EF92FF920F931F93CF93DF939D
:103720006C017A018B01C0E0D0E0CE15DF0589F095
:10373000D8016D918D01D601ED91FC910190F08140
:10374000E02DC6010995892B11F47E0102C0219656
:10375000ECCFC701DF91CF911F910F91FF90EF90B8
:10376000DF90CF9008952F923F924F925F926F9289
:103770007F928F929F92AF92BF92CF92DF92EF9201
:10378000FF920F931F93CF93DF93CDB7DEB764976C
:103790000FB6F894DEBF0FBECDBF1C01698B5B8BEB
:1037A0004A8B388B2F8727013801EF82F8860987EB
:1037B0001A871B861C861D861E86EE24E394F12C38
:1037C0008B859C85AD85BE858A159B05AC05BD05A1
:1037D00009F468C09E01295F3F4FB301A2018A89A5
:1037E0009B890E940C178F819885A985BA858F3F88
:1037F0002FEF9207A207B20709F456C0AC01BD0132
:103800004C545F4F6F4F7F4FE6E076956795579525
:103810004795EA95D1F7440F551F440F551FFA01FC
:10382000E559FD4F21E04081518162817381452B33
:10383000462B472B09F420E03989231335C08C012E
:103840009D0143E036952795179507954A95D1F741
:10385000AC01BD0147705527662777270630110553
:103860002105310560F4EF85F889E00FF11F97011C
:1038700001C0220F4A95EAF73081232B20832C01C7
:103880003D01EFEF4E1A5E0A6E0A7E0A8B859C851B
:10389000AD85BE850196A11DB11D8B879C87AD8727
:1038A000BE878ECF70E001C07EECD4014D925D9258
:1038B0006D927C92139771112AC06F857889C1012E
:1038C0000E949A07782F811122C0F101EF5BFE4F11
:1038D00006E010E020E030E0AE014F5F5F4F60EBAC
:1038E00080817C8B0E94AE197C89892B09F07CEE4B
:1038F000AF85B889FE013196CE0107963D912191A1
:10390000321304C0E817F907C9F701C07EEC872F0E
:1039100064960FB6F894DEBF0FBECDBFDF91CF9196
:103920001F910F91FF90EF90DF90CF90BF90AF90DD
:103930009F908F907F906F905F904F903F902F90CF
:103940000895CF92DF92EF92FF920F931F932FB7BC
:10395000F894C090C509D090C609E090C709F090CE
:10396000C8092FBFDC01CB018C0D9D1DAE1DBF1DF5
:103970004FB7F8940091C5091091C6092091C70965
:103980003091C8094FBF0C151D052E053F0528F0C5
:1039900080179107A207B30758F71F910F91FF9067
:1039A000EF90DF90CF9008952F923F924F925F92C9
:1039B0006F927F928F929F92AF92BF92CF92DF923F
:1039C000EF92FF920F931F93CF93DF93CDB7DEB7A4
:1039D0006C970FB6F894DEBF0FBECDBF2B013C0134
:1039E00029833A834B835C83ED86FE860F87188B91
:1039F000160185012091850930918609409187093A
:103A00005091880929873A874B875C8728ED3FE0EA
:103A100049E45FE369817A818B819C810E942C2932
:103A20000E94C92A6B017C0129813A814B815C810A
:103A300068ED7FE089E49FE30E942B290E94C92A58
:103A4000698B7A8B8B8B9C8B24EA34EB49E253E4B1
:103A500069857A858B859C850E942C299B01AC0108
:103A60000E949E2B4B015C01A3019201C301B20194
:103A70000E949E2B9B01AC01C501B4010E942C2920
:103A80000E94D72A69837A838B839C839B01AC0134
:103A9000C301B2010E94B8290E9498296D837E83D8
:103AA0008F8398876D857E858F8598890E94C92A26
:103AB0004B015C01A701960169857A858B859C8500
:103AC0000E949E2B9B01AC01C501B4010E949E2B5C
:103AD00020E030E040E05FE30E949E2B2B013C01A0
:103AE00069857A858B859C85905829893A894B8987
:103AF0005C890E949E2B9B01AC01C501B4010E9410
:103B00009E2B20E030E040E05FE30E949E2B4B01C3
:103B10005C01A3019201C301B2010E949E2B2DE31F
:103B200030E041E656E40E94B8299B01AC0160E018
:103B300070E080E89FE30E942B290E941A292B0144
:103B40003C01A5019401C501B4010E949E2B2DE307
:103B500030E041E656E40E94B8299B01AC0160E0E8
:103B600070E080E89FE30E942B290E941A294B01F4
:103B70005C01B101330C880B990B0E943F2B6B0148
:103B80007C019B01AC01C301B2010E949E2B6D8799
:103B90007E878F87988BA7019601C501B4010E948B
:103BA0009E2B6B017C012D853E854F8558896D814B
:103BB0007E818F8198850E942C290E94B3292981BA
:103BC0003A814B815C810E949E2B4B015C01A701D5
:103BD00096016D817E818F8198850E942C290E949B
:103BE000B32929813A814B815C810E949E2B698B8C
:103BF0007A8B8B8B9C8BA70196016D817E818F8147
:103C000098850E942B290E94B32929813A814B81F2
:103C10005C810E949E2B2B013C012D853E854F85AA
:103C200058896D817E818F8198850E942B290E9401
:103C3000B32929813A814B815C810E949E2B6D833F
:103C40007E838F83988729813A814B815C81CA0169
:103C5000B9010E949E2B6B017C01A5019401C50155
:103C6000B4010E949E2B9B01AC01C701B6010E94CA
:103C70002B290E94D72A69837A838B839C83298985
:103C80003A894B895C89CA01B9010E949E2B9B012C
:103C9000AC01C701B6010E942B290E94D72A6D876B
:103CA0007E878F87988BA3019201C301B2010E9486
:103CB0009E2B9B01AC01C701B6010E942B290E94DB
:103CC000D72A6D8B7E8B8F8B988F2D813E814F8174
:103CD0005885CA01B9010E949E2B9B01AC01C70106
:103CE000B6010E942B290E94D72A698F7A8F8B8F69
:103CF0009C8F29853A854B855C85C501B4010E945E
:103D00002B2923EF34E045EB5FE30E94B8296B01D8
:103D10007C0129853A854B855C8569897A898B89FF
:103D20009C890E942B2923EF34E045EB5FE30E943E
:103D3000B8294B015C0129853A854B855C85C30117
:103D4000B2010E942B2923EF34E045EB5FE30E9490
:103D5000B8292B013C0129853A854B855C856D810D
:103D60007E818F8198850E942B2923EF34E045EBDB
:103D70005FE30E94B8290130110509F071C0C092BB
:103D8000A509D092A609E092A709F092A809298175
:103D90003A814B815C812093A9093093AA09409311
:103DA000AB095093AC09C092AD09D092AE09E09234
:103DB000AF09F092B0098092B1099092B209A09235
:103DC000B309B092B4092D853E854F85588920935B
:103DD000B5093093B6094093B7095093B80980925A
:103DE000B9099092BA09A092BB09B092BC0940925D
:103DF000BD095092BE096092BF097092C0092D8919
:103E00003E894F89588D2093C1093093C209409350
:103E1000C3095093C4094092C5095092C6096092E3
:103E2000C7097092C8096093C9097093CA09809341
:103E3000CB099093CC09298D3A8D4B8D5C8D2093C5
:103E4000CD093093CE094093CF095093D0096093A8
:103E5000D1097093D2098093D3099093D40970C08B
:103E6000C092B109D092B209E092B309F092B409BC
:103E700029813A814B815C812093B5093093B60941
:103E80004093B7095093B809C092B909D092BA09C2
:103E9000E092BB09F092BC098092C9099092CA09CC
:103EA000A092CB09B092CC092D853E854F855889CB
:103EB0002093CD093093CE094093CF095093D00978
:103EC0008092D1099092D209A092D309B092D409DC
:103ED0004092A5095092A6096092A7097092A8097C
:103EE0002D893E894F89588D2093A9093093AA09BD
:103EF0004093AB095093AC094092AD095092AE0982
:103F00006092AF097092B0096093BD097093BE09C9
:103F10008093BF099093C009298D3A8D4B8D5C8D9C
:103F20002093C1093093C2094093C3095093C40937
:103F30006093C5097093C6098093C7099093C80917
:103F40006C960FB6F894DEBF0FBECDBFDF91CF9158
:103F50001F910F91FF90EF90DF90CF90BF90AF90A7
:103F60009F908F907F906F905F904F903F902F9099
:103F700008956115710579F0FB0101900020E9F7C2
:103F80003197AF01461B570BDC01ED91FC9102808C
:103F9000F381E02D099480E090E00895CF93DF93C2
:103FA000CDB7DEB7C155D1090FB6F894DEBF0FBE4D
:103FB000CDBF789484B5826084BD84B5816084BDB2
:103FC00085B5826085BD85B5816085BD80916E00B7
:103FD000816080936E0010928100809181008260E8
:103FE0008093810080918100816080938100809125
:103FF00080008160809380008091B1008460809314
:10400000B1008091B00081608093B00080917A000F
:10401000846080937A0080917A00826080937A0035
:1040200080917A00816080937A0080917A00806824
:1040300080937A001092C10010929D0410929E0409
:1040400010929F041092A00410925B0410925C04E2
:1040500010925D0410925E0468EB7BE080E090E0DB
:104060000E94A11C8CEB93E090939C0480939B0492
:104070000E9451152FB7F8948091C5099091C609F7
:10408000A091C709B091C8092FBF80935B0490939A
:104090005C04A0935D04B0935E046BE772E08091D2
:1040A0009B0490919C040E94B91F6AE070E080E03C
:1040B00090E00E94A11C11E010936F040E94511522
:1040C00087E497E00E949B0682EE96E00E949B06A2
:1040D0002A961FAE2A97BE01675B7F4F87E497E061
:1040E0000E948F1529961FAE2997BE01685B7F4FEE
:1040F00082EE96E00E948F156DE872E08CEB93E003
:104100000E94B91F6AE872E08CEB93E00E94B91F2D
:104110008091F2089091F308FC01EF5BFE4F29E2D9
:10412000208331961083319680E991E091838083DA
:104130001092E5021092E402109297031092B903D4
:10414000109295031093940310926F0361E082E143
:104150000E94B71861E083E10E94B7188091B9000E
:104160008E7F8093B9008091B9008D7F8093B900D4
:1041700088E48093B80085E48093BC0021E04EEF92
:1041800069E88DEA97E00E94071B811106C040E0B4
:1041900068E88DEA97E00E94681BAE01455C5F4FBE
:1041A00060EC8DEA97E00E94AE1A10928C0888EEBF
:1041B00093E09093E7088093E60880E991E090937C
:1041C000E9088093E80885E89BE6A1E0B0E08093E9
:1041D000EA089093EB08A093EC08B093ED0884EA0A
:1041E00090E7A9E0B0E08093750890937608A093DB
:1041F0007708B09378081092CA071092CB071092F4
:10420000CC071092CD07CE0101962C01BC018DEA9E
:1042100097E00E94D302782E81110AC019821A8277
:104220008AE3F201ADEBB7E001900D928A95E1F7D8
:1042300084E690E09093CF088093CE0884E893E0E2
:104240009093D1088093D00884EF91E09093D308A5
:104250008093D20880E09AE09093D6088093D508A6
:1042600081E08093E50841E060E88DEA97E00E94F4
:10427000681B182F41E06FEF8DEA97E00E94681BE2
:10428000812B782A40E060E08DEA97E00E94681B6D
:10429000782AAE01415C5F4F61E98DEA97E00E94A8
:1042A000AE1A782A8FAD8093D40841E060E08DEAA1
:1042B00097E00E94681B782A40E06FEF8DEA97E054
:1042C0000E94681B782A40E060E88DEA97E00E942F
:1042D000681B782AFEEDCF2EF7E0DF2E00E010E01D
:1042E000FF24F3947110AFC0F60141915191619197
:1042F00071916F010330110509F138F40130110596
:1043000069F002301105B9F006C004301105C9F09A
:1043100005301105C9F0F092D2071FC0E9E076958B
:10432000679557954795EA95D1F764E48DEA97E04C
:104330000E94461B10C0F092D4070FC0F092D50720
:104340000CC020E04EEF02C020E04FEE60E68DEAA8
:1043500097E00E94071B811105C0F801E455F84F52
:10436000F6A201C0782E0F5F1F4F0630110509F02D
:10437000B9CF711068C01092D4071092D50722E00F
:104380004EEF60E68DEA97E00E94071B782E8111C0
:104390005AC01092D60720E14FEE60E68DEA97E012
:1043A0000E94071B782E81114EC01092D70780E023
:1043B00090E0A2E1B0E08093DE079093DF07A09346
:1043C000E007B093E1078091D307811132C080E00C
:1043D00090E4A0E0B0E08093E2079093E307A0931D
:1043E000E407B093E50780E090E0A3E2B0E08093BB
:1043F000E6079093E707A093E807B093E9071092C8
:10440000EA071092EB071092EC071092ED078FEF7E
:104410008093CA084FEF61E08DEA97E00E94681B25
:10442000782E81E08093CC0871100DC01092B108F5
:104430000AC040E250E064E48DEA97E00E94461B27
:10444000782E882321F27092AC0749E26AE88091C5
:10445000F2089091F3080E94681B8093AC070E94B9
:104460003F194B015C016AE0C62ED12CE12CF12CE6
:104470000E943F19DC01CB0188199909AA09BB09DF
:10448000883E9340A105B10558F0F1E0CF1AD1085C
:10449000E108F10828EE820E23E0921EA11CB11C57
:1044A000C114D104E104F10419F78091AC07811122
:1044B000A9C1E091F208F091F308EF5BFE4F89E2A9
:1044C000808362E08DEA97E00E94B211811147C0BB
:1044D00080918D08811107C06CE872E08DE399E04E
:1044E0000E94312B0AC010918E086FE878E08DE3AE
:1044F00099E00E94312B111103C063EA72E00EC0F3
:10450000133228F4103229F06FEA72E007C0173234
:1045100018F46BEB72E002C067EC72E08DEF98E08C
:104520000E94312B6CED72E08DE199E00E94312BFD
:104530004DE559E060EC8DEA97E00E94AE1A8111DA
:104540000EC0A20162EC8DEA97E00E94AE1A91E0E3
:1045500090935E09998192959F7090935F098093E3
:10456000AC07811107C080915F09813019F08BEF92
:104570008093AC078091AC078111C8C06090F208AD
:104580007090F3088AE3F20111928A95E9F7259673
:104590001FAE1EAE259728961FAE289727961FAEF2
:1045A000279723961CAE1DAE1EAE1FAE239761E06B
:1045B000C3010E94B211F301EE5FFE4F2080A22CD6
:1045C000B12CC12CD12C31963080F1E0F31578F06C
:1045D0003F1207C021E2A216B104C104D10438F48D
:1045E00010C08DE0A816B104C104D10450F0AE0192
:1045F0004A5B5F4FBE01615C7F4FC3010E942F0B7E
:1046000068C041E06FEFC3010E94681B81111AC0AE
:1046100040E06FE4C3010E94681B811113C04CE2AB
:104620006EE4C3010E94681B81110CC040E06FEF73
:10463000C3010E94681B811105C044EB66EBC301F6
:104640000E94681B93012F5E3E4FF9011082319644
:1046500010823196108231961082319610823196F6
:104660001082E12CF12C87013320E9F0D801C70139
:104670008C549F4FAF4FBF4F46E0B695A795979587
:1046800087954A95D1F7880F991F880F991FFC01CC
:10469000E559FD4F80819181A281B381892B8A2BBD
:1046A0008B2B09F463C2CE01CB964C01A301495E6A
:1046B0005E4F632DC3010E94B31B81110AC081E0CC
:1046C000F301EC5FFE4F8083329720823196308277
:1046D00002C0811119C0F301E85CFE4F8081811195
:1046E00004C032976081718102C060E071E0C30153
:1046F0000E94CF0D811108C044E06AE0C3010E940E
:10470000681B882309F43FC28093AC078091AC07F3
:1047100081110CC0AE014D5B5F4FB2018091F20878
:104720009091F3080E942F0B8093AC078091AC0707
:1047300081110FC021E0AE01455C5F4FBE01615C9D
:104740007F4F8091F2089091F3080E942A0780938E
:10475000AC078091AC07811107C0E091F208F0919D
:10476000F308108A1092AC078091AC07811108C041
:10477000E091F208F091F30881E085A31092AC0774
:104780008091AC0781111BC00091F2081091F308D1
:10479000F80145A956A967A970ADB9E07695679566
:1047A00057954795BA95D1F764E4C8010E94461B16
:1047B000811103C091E0F80196A38093AC0780912A
:1047C000AC07811108C0E091F208F091F30881E094
:1047D00080A71092AC078091AC0781110FC0E091C7
:1047E000F208F091F308FD9684ED98E0A0E0B0E0C7
:1047F00080839183A283B3831092AC078091AC072E
:10480000882329F087EE90E00E94D215FFCF82EC3A
:1048100090E00E94D2158CEB93E00E94B317409772
:104820000CF4A1C18CEB93E00E94911788349105A0
:1048300009F099C18CEB93E00E9491179091C30409
:10484000981391C16091C6047091C704660F771FD9
:10485000072E000C880B990B0E943F2B2BED3FE09D
:1048600049E450E40E949E2B20E030E04AE754E403
:104870000E94B8292B013C0120E030E0A9010E94F0
:10488000C42A87FD4EC029EF3FE049EC5FE3C30136
:10489000B2010E94382B87FF44C06091C804709118
:1048A000C904645F7140072E000C880B990B0E94AD
:1048B0003F2B20E030E04AEF53E40E94B82920E586
:1048C00031E545E25FE30E949E2B2E966CAF7DAFF3
:1048D0008EAF9FAF2E9724E13EEA47E45FE3C3012A
:1048E000B2010E942B299B01AC018091CA049091D6
:1048F000CB048C599F4FBC01990F880B990B2F96B5
:104900002FAF2F9760963FAF609761964FAF61973B
:1049100062965FAF62970E943F2BAA24A394B12CAA
:104920000BC123EC35EF48EC5FE3C301B2010E94F9
:10493000C42A87FD4EC023EC35EF48E450E4C301A0
:10494000B2010E94382B87FF44C06091C804709167
:10495000C904645F7140072E000C880B990B0E94FC
:104960003F2B20E030E04AEF53E40E94B82920E5D5
:1049700031E545E25FE30E949E2B2E966CAF7DAF42
:104980008EAF9FAF2E9721ED3BEC46E150E4C30183
:10499000B2010E942B299B01AC018091CA04909125
:1049A000CB048C599F4FBC01990F880B990B2F9604
:1049B0002FAF2F9760963FAF609761964FAF61978B
:1049C00062965FAF62970E943F2BAA24AA94BA2CEA
:1049D00057C023EC35EF48E450E4C301B2010E9414
:1049E000C42A87FD51C022E538EB46E950E4C301F3
:1049F000B2010E94382B87FF47C06091C8047091B4
:104A0000C904645F7140072E000C880B990B0E944B
:104A10003F2B20E030E04AEF53E40E94B82920E524
:104A200031E545E25FE30E949E2B2E966CAF7DAF91
:104A30008EAF9FAF2E972EEC33E54BE750E4C301CA
:104A4000B2010E942B299B01AC018091CA04909174
:104A5000CB048C599F4FBC01990F880B990B2F9653
:104A60002FAF2F9760963FAF609761964FAF6197DA
:104A700062965FAF62970E943F2BAA24A394B12C49
:104A8000CC24CA94DC2C5BC022E538EB46E950E428
:104A9000C301B2010E94C42A87FD65C023EC35EF33
:104AA00048EC50E4C301B2010E94382B18160CF4F4
:104AB0005AC06091C8047091C904645F7140072EA8
:104AC000000C880B990B0E943F2B20E030E04AEF4E
:104AD00053E40E94B82920E531E545E25FE30E94F6
:104AE0009E2B2E966CAF7DAF8EAF9FAF2E9724E19D
:104AF0003EEA4FEA50E4C301B2010E942B299B0118
:104B0000AC018091CA049091CB048C599F4FBC0199
:104B1000990F880B990B2F962FAF2F9760963FAF69
:104B2000609761964FAF619762965FAF62970E9400
:104B30003F2BAA24AA94BA2CCC24C394D12C2E9611
:104B4000ECACFDAC0EAD1FAD2E972F962FAD2F9771
:104B500060963FAD609761964FAD619762965FAD8D
:104B600062970E94D41C0E94531855CEFCE2EF16A7
:104B7000F1040105110509F496CDFFEFEF1AFF0AC4
:104B80000F4F1F4F73CD20E04FEE64E8C3010E942A
:104B9000071B8111B9CD84E0F301E253FF4F8083FD
:104BA000C3010E94B0168111AFCD41E06FEFC30188
:104BB0000E94681B382EAE014D5B5F4F64E8C30155
:104BC0000E94801A382A40E06FEFC3010E94681BE0
:104BD000832909F099CDF301E853FF4F25968EAD57
:104BE0009FAD259714E0880F991F1A95E1F7A0E073
:104BF000B0E080839183A283B383B201C3010E949A
:104C0000D302811181CDAE01495B5F4F69E0C301E1
:104C10000E94AE1A811178CD28968FAD28978170A9
:104C200028968FAF2897F301E25EFE4F80838AE3D8
:104C3000F201D301509601900D928A95E1F7AE01F1
:104C4000495B5F4F61E0C3010E94AE1A81115CCDE8
:104C50008301035E1E4F28968FAD2897F80180834D
:104C60001BAEAE01455C5F4F61E0C3010E94AE1A0E
:104C70009BAD811117C0F92FFF7EFF2EF917A1F010
:104C80004F2F61E0C3010E94681B81110BC0F80126
:104C9000F082F3014289538964897589C3010E94B6
:104CA0004A1002C0811130CD1BAEAE01455C5F4F92
:104CB00061E0C3010E94AE1A9BAD811117C0F92FAC
:104CC000FB7FFF2EF917A1F04F2F61E0C3010E9477
:104CD000681B81110BC0F801F082F30142895389EE
:104CE00064897589C3010E944A1002C081110CCDEC
:104CF00083E0F301E15EFE4F8083AE014B5B5F4FCB
:104D000060E0C3010E94BC0E8111FECC26968FADDF
:104D10002697F301E852FF4F8083AE014B5B5F4F54
:104D200061E0C3010E94BC0E8111EECC26968FADCE
:104D30002697F301ED52FF4F8083AE01455C5F4F34
:104D400063E0C3010E943B028111DECC8BAD9CADC0
:104D5000ADADBEADF301EC52FF4F80839183A283D2
:104D6000B383AE01455C5F4F64E0C3010E943B0228
:104D70008111CACCF301E153FF4F4BAD5CAD6DAD7A
:104D80007EAD4083518362837383BECCCF93DF9328
:104D9000CFE2D2E0D093E706C093E60686EE96E037
:104DA0000E947915D0934C07C0934B078BE497E092
:104DB000DF91CF910C9479153F924F925F926F9251
:104DC0007F928F929F92AF92BF92CF92DF92EF929B
:104DD000FF920F931F93CF93DF93ECEBF3E01382DB
:104DE000128288EE93E0A0E0B0E084839583A683EE
:104DF000B78327EF31E03183208325EC30E035871E
:104E0000248724EC30E03787268720EC30E0318B94
:104E1000208B21EC30E0338B228B22EC30E0358B81
:104E2000248B26EC30E0378B268B118E128E138E5E
:104E3000148EE9E5F4E01682178210861186128638
:104E400013861486158616861786108A118A128A8A
:104E5000138A148A158AE1EAF4E0138212828483A9
:104E60009583A683B78387E092E091838083ECEA01
:104E7000F7E084EB91E0DF019C011D92215030406E
:104E8000E1F78DEA97E09093F3088093F20884EFBE
:104E900098E09093FC088093FB08E7E4F7E087E054
:104EA00090E09183808388E090E09383828320E088
:104EB00048E067E08BE497E00E948D048AE697E083
:104EC0009093AB078093AA07E2EEF6E002E010E0D1
:104ED00011830083C3E0D0E0D383C28320E043E0AA
:104EE00062E086EE96E00E948D0485E097E0909364
:104EF000460780934507EDE5F6E083E3C82EDC2CFA
:104F000081E6E82E82E4F82EC082D182E282F3822A
:104F100040E050E067E273E444835583668377831F
:104F200080E090E0A8E0B3E480879187A287B38710
:104F300026EE822E2EE2922E25E6A22E22E4B22E1C
:104F40008092D0069092D106A092D206B092D3065B
:104F500021E030E036872587108B0787D28BC18B05
:104F6000C3A2D4A2E5A2F6A247A350A761A772A745
:104F700083A794A7A5A7B6A70F2E412C512CFDED12
:104F80006F2EF3E47F2EF02D438A548A658A768A49
:104F90000F2E412CF0E85F2EF5EF6F2EF3E47F2EFD
:104FA000F02D478A508E618E728E0F2E412C512C1F
:104FB000F8EC6F2EF3E47F2EF02D438E548E658E29
:104FC000768E3324339434863093D5062093D406DA
:104FD000E8EDF5E0C082D182E282F382448355831A
:104FE0006683778380879187A287B38780924B06F9
:104FF00090924C06A0924D06B0924E062BE030E007
:10500000368725872CE030E0308B27872DE030E095
:10501000328B218BC3A2D4A2E5A2F6A247A350A74C
:1050200061A772A783A794A7A5A7B6A7412C512C67
:1050300023EC622E23E4722E438A548A658A768A90
:10504000412C512C31EF632E33E4732E478A508E5E
:10505000618E728E412C512C29E2622E23E4722E35
:10506000438E548E658E768E348610935006009350
:105070004F06E3E5F5E0C082D182E282F382448309
:1050800055836683778380879187A287B3878092D1
:10509000C6059092C705A092C805B092C90525E142
:1050A00030E03687258726E130E0308B278727E1FF
:1050B00030E0328B218BC3A2D4A2E5A2F6A247A393
:1050C00050A761A772A783A794A7A5A7B6A700E0DA
:1050D00010E02BED33E4038B148B258B368B00E033
:1050E00010E025E433E4078B108F218F328F00E02E
:1050F00010E025ED33E4038F148F258F368F14864F
:10510000D093CB05C093CA05EEECF4E0C082D18207
:10511000E282F38244835583668377838087918715
:10512000A287B3878092410590924205A0924305E1
:10513000B09244052FE130E03687258720E230E049
:10514000308B278721E230E0328B218BC3A2D4A29F
:10515000E5A2F6A247A350A761A772A783A794A7C9
:10516000A5A7B6A780E090E8A6EFB3E4838B948B65
:10517000A58BB68B80E090E0A6EEB3E4878B908F92
:10518000A18FB28F80E090E8A5EDB3E4838F948F78
:10519000A58FB68F148684E090E0909346058093A7
:1051A00045058DE48093C30488E58093B8048FE4BB
:1051B0008093AD04DF91CF911F910F91FF90EF90FD
:1051C000DF90CF90BF90AF909F908F907F906F9027
:1051D0005F904F903F900895AA1BBB1B51E107C001
:1051E000AA1FBB1FA617B70710F0A61BB70B881F77
:1051F000991F5A95A9F780959095BC01CD01089506
:1052000097FB072E16F4009407D077FD09D00E9473
:10521000EC2807FC05D03EF4909581959F4F0895AA
:10522000709561957F4F0895EE0FFF1F0590F491E3
:10523000E02D09949F939F770E942A2A0F900020C7
:1052400042F49058A2EA2AED3FE049E450E40E947B
:1052500043290C94222C5058BB27AA270E9443298B
:105260000C94222C0E94142C38F00E941B2C20F04D
:1052700039F49F3F19F426F40C94112C0EF4E095A8
:10528000E7FB0C940B2CE92F0E94332C58F3BA1730
:10529000620773078407950720F079F4A6F50C944C
:1052A000552C0EF4E0950B2EBA2FA02D0B01B90151
:1052B00090010C01CA01A0011124FF27591B99F08C
:1052C000593F50F4503E68F11A16F040A22F232F98
:1052D000342F4427585FF3CF469537952795A795E8
:1052E000F0405395C9F77EF41F16BA0B620B730B8F
:1052F000840BBAF09150A1F0FF0FBB1F661F771F00
:10530000881FC2F70EC0BA0F621F731F841F48F4B4
:10531000879577956795B795F7959E3F08F0B0CF3D
:105320009395880F08F09927EE0F97958795089524
:105330009F939F77EEE389379E0728F4E8E6F0E035
:105340000E94712A0CC00E942A2A9058A2EA2AEDD3
:105350003FE049EC5FE30E9443290E94222C0F901A
:1053600007FC905808950E94872AE3950C94B02A70
:105370000E94CC290C94222C0E941B2C58F00E94D5
:10538000142C40F029F45F3F29F00C940B2C5111A0
:105390000C94562C0C94112C0E94332C68F39923F6
:1053A000B1F3552391F3951B550BBB27AA27621721
:1053B0007307840738F09F5F5F4F220F331F441F2E
:1053C000AA1FA9F335D00E2E3AF0E0E832D0915062
:1053D0005040E695001CCAF72BD0FE2F29D0660F4F
:1053E000771F881FBB1F261737074807AB07B0E892
:1053F00009F0BB0B802DBF01FF2793585F4F3AF098
:105400009E3F510578F00C940B2C0C94562C5F3F6A
:10541000E4F3983ED4F3869577956795B795F7951D
:105420009F5FC9F7880F911D9695879597F9089505
:10543000E1E0660F771F881FBB1F621773078407A1
:10544000BA0720F0621B730B840BBA0BEE1F88F7B0
:10545000E0950895DF93CF931F930F938B01EC0199
:10546000ECE7F0E00E944A2A0E94222C9801AE014B
:105470008B01EC0160E070E080E89FE30E942B2943
:105480000E94D72A9801AE010F911F91CF91DF9111
:105490000C94B12BDF93CF931F930F93FF92EF9256
:1054A000DF927B018C01689406C0DA2EEF010E9426
:1054B000B12BFE01E894A591259135914591559127
:1054C000A6F3EF010E944329FE019701A801DA9497
:1054D00069F7DF90EF90FF900F911F91CF91DF91CF
:1054E00008959F938F937F936F93FF93EF939B0107
:1054F000AC010E949E2BEF91FF910E944A2A2F91AE
:105500003F914F915F910C949E2B0C94112C0E9413
:105510003B2CD8F3E894E0E0BB279F57F0F02AED4E
:105520003FE049EC06C0EE0FBB0F661F771F881FD8
:1055300028F0B23A62077307840728F0B25A620B68
:10554000730B840BE3959A9572F7803830F49A9533
:10555000BB0F661F771F881FD2F790480C94192B3A
:10556000EF93E0FF07C0A2EA2AED3FE049EC5FEBD2
:105570000E9443290E94222C0F90039401FC905812
:10558000E4EAF0E00C94712A0E947A2B08F48FEF81
:1055900008959F930E94872A0F9007FCEE5F0C945A
:1055A000B02A19F416F40C94112C0C94172B0E94A9
:1055B0003B2CB8F39923C9F3B6F39F57550B87FFDC
:1055C0000E94252B0024A0E640EA900180585695C1
:1055D000979528F4805C660F771F881F20F02617A8
:1055E0003707480730F4621B730B840B20293129DD
:1055F0004A2BA69517940794202531254A2758F75A
:10560000660F771F881F20F026173707480730F4EA
:10561000620B730B840B200D311D411DA09581F78A
:10562000B901842F9158880F9695879508959F3FCB
:1056300031F0915020F4879577956795B795880F4D
:10564000911D9695879597F9089591505040660F52
:10565000771F881FD2F7089581E090E0F8940C94AA
:10566000A82CFB01DC0101900D920020E1F70895C8
:105670000E947A2B08F481E00895E89409C097FB12
:105680003EF490958095709561957F4F8F4F9F4F19
:105690009923A9F0F92F96E9BB279395F69587955D
:1056A00077956795B795F111F8CFFAF4BB0F11F420
:1056B00060FF1BC06F5F7F4F8F4F9F4F16C08823C7
:1056C00011F096E911C0772321F09EE8872F762FFD
:1056D00005C0662371F096E8862F70E060E02AF03E
:1056E0009A95660F771F881FDAF7880F969587952A
:1056F00097F90895990F0008550FAA0BE0E8FEEFFF
:1057000016161706E807F907C0F012161306E40785
:10571000F50798F0621B730B840B950B39F40A267E
:1057200061F0232B242B252B21F408950A2609F45C
:10573000A140A6958FEF811D811D08950E94B12B78
:105740000C94222C0E94142C38F00E941B2C20F068
:10575000952311F00C940B2C0C94112C11240C9407
:10576000562C0E94332C70F3959FC1F3950F50E097
:10577000551F629FF001729FBB27F00DB11D639F03
:10578000AA27F00DB11DAA1F649F6627B00DA11DA9
:10579000661F829F2227B00DA11D621F739FB00D4F
:1057A000A11D621F839FA00D611D221F749F3327BF
:1057B000A00D611D231F849F600D211D822F762F58
:1057C0006A2F11249F5750409AF0F1F088234AF035
:1057D000EE0FFF1FBB1F661F771F881F91505040A1
:1057E000A9F79E3F510580F00C940B2C0C94562C7D
:1057F0005F3FE4F3983ED4F3869577956795B79528
:10580000F795E7959F5FC1F7FE2B880F911D969541
:10581000879597F9089597F99F6780E870E060E0B1
:1058200008959FEF80EC089500240A941616170639
:1058300018060906089500240A9412161306140681
:1058400005060895092E0394000C11F4882352F0E4
:10585000BB0F40F4BF2B11F460FF04C06F5F7F4F9C
:105860008F4F9F4F089557FD9058440F551F59F083
:105870005F3F71F04795880F97FB991F61F09F3F3D
:1058800079F087950895121613061406551FF2CF66
:105890004695F1DF08C0161617061806991FF1CFB6
:1058A00086957105610508940895E894BB276627DD
:1058B0007727CB0197F90895DB018F939F930E947F
:1058C0008E2CBF91AF91A29F800D911DA39F900D33
:1058D000B29F900D11240895A1E21A2EAA1BBB1BA2
:1058E000FD010DC0AA1FBB1FEE1FFF1FA217B307AC
:1058F000E407F50720F0A21BB30BE40BF50B661FC2
:10590000771F881F991F1A9469F760957095809585
:1059100090959B01AC01BD01CF0108950E94992C87
:10592000A59F900DB49F900DA49F800D911D1124F3
:105930000895A29FB001B39FC001A39F700D811D68
:105940001124911DB29F700D811D1124911D089588
:1059500010E0CDEAD0E004C0FE010E941429219697
:0A596000CE3AD107C9F7F894FFCF43
:10596A0001FF0101000001FF00010900011000010F
:10597A0011000124010125FF01750001FF01014EFB
:10598A002C01480001302001FF00013009015400B8
:10599A0001310401320301408301462501600001FF
:1059AA00270001500601510001529601560801577D
:1059BA00300161000162000164000165000166A016
:1059CA0001FF010122320147140149FF014A000186
:1059DA00FF00017A0A017B0001782101FF010123FE
:1059EA00340142000144FF014526014605014040B9
:1059FA00010E0601201A01434001FF000134030190
:105A0A00354401FF01013104014B09014C05014DE7
:105A1A000401FF000144000145200147080148280C
:105A2A000167000170040171010172FE0176000133
:105A3A00770001FF01010D0101FF00018001010151
:105A4A00F801FF01018E0101000101FF0001800040
:105A5A0000000000000000EA17881BB3179117A581
:105A6A00173118000000000C02DC01D401C001B19A
:105A7A0001B001000000005D18881B5D185D185D0B
:105A8A00185D18000000005D18881B00000000F176
:105A9A0000881B45015D01D800F000ED010000CC33
:105AAA00010000AB010000B6010000C5000000AA19
:105ABA0001000086010000E2010000A9000000BA0E
:105ACA00010000EB010000900100000A000000053F
